{
  "contractName": "SimpleStorage",
  "abi": [
    {
      "anonymous": false,
      "inputs": [
        {
          "indexed": false,
          "internalType": "address",
          "name": "sender",
          "type": "address"
        },
        {
          "indexed": false,
          "internalType": "uint256",
          "name": "newValue",
          "type": "uint256"
        }
      ],
      "name": "TestEvent",
      "type": "event"
    },
    {
      "inputs": [],
      "name": "read",
      "outputs": [
        {
          "internalType": "uint256",
          "name": "",
          "type": "uint256"
        }
      ],
      "stateMutability": "view",
      "type": "function",
      "constant": true
    },
    {
      "inputs": [
        {
          "internalType": "uint256",
          "name": "newValue",
          "type": "uint256"
        }
      ],
      "name": "write",
      "outputs": [],
      "stateMutability": "nonpayable",
      "type": "function"
    }
  ],
  "bytecode": "0x608060405234801561001057600080fd5b506101f3806100206000396000f3fe608060405234801561001057600080fd5b50600436106100365760003560e01c80632f048afa1461003b57806357de26a414610057575b600080fd5b610055600480360381019061005091906100fc565b610075565b005b61005f6100b8565b60405161006c9190610138565b60405180910390f35b806000819055507f2a1343a7ef16865394327596242ebb1d13cafbd9dbb29027e89cbc0212cfa73733826040516100ad929190610194565b60405180910390a150565b60008054905090565b600080fd5b6000819050919050565b6100d9816100c6565b81146100e457600080fd5b50565b6000813590506100f6816100d0565b92915050565b600060208284031215610112576101116100c1565b5b6000610120848285016100e7565b91505092915050565b610132816100c6565b82525050565b600060208201905061014d6000830184610129565b92915050565b600073ffffffffffffffffffffffffffffffffffffffff82169050919050565b600061017e82610153565b9050919050565b61018e81610173565b82525050565b60006040820190506101a96000830185610185565b6101b66020830184610129565b939250505056fea26469706673582212208df211b29e83660637e38df23806a7cab41ae040e113212aaecb054bc2ca7f3164736f6c634300080e0033",
  "immutableReferences": {},
  "source": "// SPDX-License-Identifier: MIT\npragma solidity >=0.4.22 <0.9.0;\n\ncontract SimpleStorage {\n  uint256 value;\n\n  event TestEvent(address sender, uint256 newValue);\n\n  function read() public view returns (uint256) {\n    return value;\n  }\n\n  function write(uint256 newValue) public {\n    value = newValue;\n    emit TestEvent(msg.sender, newValue);\n  }\n}\n",
  "sourcePath": "d:\\onedrive\\workspace\\truffle-exper\\truffle\\contracts\\SimpleStorage.sol",
  "compiler": {
    "name": "solc",
    "version": "0.8.14+commit.80d49f37.Emscripten.clang"
  },
  "schemaVersion": "3.4.11",
  "updatedAt": "2022-12-11T03:01:45.489Z",
  "networkType": "ethereum",
  "devdoc": {
    "kind": "dev",
    "methods": {},
    "version": 1
  },
  "userdoc": {
    "kind": "user",
    "methods": {},
    "version": 1
  }
}