{
  "contractName": "UserRequestContract",
  "abi": [
    {
      "anonymous": false,
      "inputs": [
        {
          "indexed": false,
          "internalType": "address",
          "name": "user",
          "type": "address"
        },
        {
          "indexed": false,
          "internalType": "string",
          "name": "userId",
          "type": "string"
        },
        {
          "indexed": false,
          "internalType": "string",
          "name": "pubKey",
          "type": "string"
        },
        {
          "indexed": false,
          "internalType": "uint32",
          "name": "config",
          "type": "uint32"
        },
        {
          "indexed": false,
          "internalType": "uint32",
          "name": "duration",
          "type": "uint32"
        },
        {
          "indexed": false,
          "internalType": "bool",
          "name": "encryptRequired",
          "type": "bool"
        }
      ],
      "name": "NewRequest",
      "type": "event"
    },
    {
      "inputs": [
        {
          "internalType": "address",
          "name": "",
          "type": "address"
        }
      ],
      "name": "newestRequests",
      "outputs": [
        {
          "internalType": "string",
          "name": "userId",
          "type": "string"
        },
        {
          "internalType": "string",
          "name": "pubKey",
          "type": "string"
        },
        {
          "internalType": "uint32",
          "name": "config",
          "type": "uint32"
        },
        {
          "internalType": "uint32",
          "name": "duration",
          "type": "uint32"
        },
        {
          "internalType": "bool",
          "name": "encryptRequired",
          "type": "bool"
        }
      ],
      "stateMutability": "view",
      "type": "function",
      "constant": true
    },
    {
      "inputs": [
        {
          "internalType": "string",
          "name": "userId",
          "type": "string"
        },
        {
          "internalType": "uint32",
          "name": "config",
          "type": "uint32"
        },
        {
          "internalType": "uint32",
          "name": "duration",
          "type": "uint32"
        }
      ],
      "name": "requestVMWithoutEncryption",
      "outputs": [],
      "stateMutability": "nonpayable",
      "type": "function"
    },
    {
      "inputs": [
        {
          "internalType": "string",
          "name": "userId",
          "type": "string"
        },
        {
          "internalType": "uint32",
          "name": "config",
          "type": "uint32"
        },
        {
          "internalType": "uint32",
          "name": "duration",
          "type": "uint32"
        },
        {
          "internalType": "string",
          "name": "pubKey",
          "type": "string"
        }
      ],
      "name": "requestVMWithEncryption",
      "outputs": [],
      "stateMutability": "nonpayable",
      "type": "function"
    }
  ],
  "bytecode": "0x608060405234801561001057600080fd5b50610b8b806100206000396000f3fe608060405234801561001057600080fd5b50600436106100415760003560e01c80633dbc94c71461004657806365626f6d1461007a578063b679d88314610096575b600080fd5b610060600480360381019061005b9190610614565b6100b2565b604051610071959493929190610714565b60405180910390f35b610094600480360381019061008f91906108d6565b610225565b005b6100b060048036038101906100ab9190610975565b61038c565b005b60006020528060005260406000206000915090508060000180546100d590610a13565b80601f016020809104026020016040519081016040528092919081815260200182805461010190610a13565b801561014e5780601f106101235761010080835404028352916020019161014e565b820191906000526020600020905b81548152906001019060200180831161013157829003601f168201915b50505050509080600101805461016390610a13565b80601f016020809104026020016040519081016040528092919081815260200182805461018f90610a13565b80156101dc5780601f106101b1576101008083540402835291602001916101dc565b820191906000526020600020905b8154815290600101906020018083116101bf57829003601f168201915b5050505050908060020160009054906101000a900463ffffffff16908060020160049054906101000a900463ffffffff16908060020160089054906101000a900460ff16905085565b6040518060a001604052808581526020018281526020018463ffffffff1681526020018363ffffffff168152602001600115158152506000803373ffffffffffffffffffffffffffffffffffffffff1673ffffffffffffffffffffffffffffffffffffffff16815260200190815260200160002060008201518160000190805190602001906102b59291906104ff565b5060208201518160010190805190602001906102d29291906104ff565b5060408201518160020160006101000a81548163ffffffff021916908363ffffffff16021790555060608201518160020160046101000a81548163ffffffff021916908363ffffffff16021790555060808201518160020160086101000a81548160ff0219169083151502179055509050507f535ea70a9b46705e4726ca22562803c32f169182640b3e63d91f413c46c772c93385838686600160405161037e96959493929190610a53565b60405180910390a150505050565b6040518060a001604052808481526020016040518060200160405280600081525081526020018363ffffffff1681526020018263ffffffff168152602001600015158152506000803373ffffffffffffffffffffffffffffffffffffffff1673ffffffffffffffffffffffffffffffffffffffff168152602001908152602001600020600082015181600001908051906020019061042b9291906104ff565b5060208201518160010190805190602001906104489291906104ff565b5060408201518160020160006101000a81548163ffffffff021916908363ffffffff16021790555060608201518160020160046101000a81548163ffffffff021916908363ffffffff16021790555060808201518160020160086101000a81548160ff0219169083151502179055509050507f535ea70a9b46705e4726ca22562803c32f169182640b3e63d91f413c46c772c93384848460006040516104f2959493929190610ae8565b60405180910390a1505050565b82805461050b90610a13565b90600052602060002090601f01602090048101928261052d5760008555610574565b82601f1061054657805160ff1916838001178555610574565b82800160010185558215610574579182015b82811115610573578251825591602001919060010190610558565b5b5090506105819190610585565b5090565b5b8082111561059e576000816000905550600101610586565b5090565b6000604051905090565b600080fd5b600080fd5b600073ffffffffffffffffffffffffffffffffffffffff82169050919050565b60006105e1826105b6565b9050919050565b6105f1816105d6565b81146105fc57600080fd5b50565b60008135905061060e816105e8565b92915050565b60006020828403121561062a576106296105ac565b5b6000610638848285016105ff565b91505092915050565b600081519050919050565b600082825260208201905092915050565b60005b8381101561067b578082015181840152602081019050610660565b8381111561068a576000848401525b50505050565b6000601f19601f8301169050919050565b60006106ac82610641565b6106b6818561064c565b93506106c681856020860161065d565b6106cf81610690565b840191505092915050565b600063ffffffff82169050919050565b6106f3816106da565b82525050565b60008115159050919050565b61070e816106f9565b82525050565b600060a082019050818103600083015261072e81886106a1565b9050818103602083015261074281876106a1565b905061075160408301866106ea565b61075e60608301856106ea565b61076b6080830184610705565b9695505050505050565b600080fd5b600080fd5b7f4e487b7100000000000000000000000000000000000000000000000000000000600052604160045260246000fd5b6107b782610690565b810181811067ffffffffffffffff821117156107d6576107d561077f565b5b80604052505050565b60006107e96105a2565b90506107f582826107ae565b919050565b600067ffffffffffffffff8211156108155761081461077f565b5b61081e82610690565b9050602081019050919050565b82818337600083830152505050565b600061084d610848846107fa565b6107df565b9050828152602081018484840111156108695761086861077a565b5b61087484828561082b565b509392505050565b600082601f83011261089157610890610775565b5b81356108a184826020860161083a565b91505092915050565b6108b3816106da565b81146108be57600080fd5b50565b6000813590506108d0816108aa565b92915050565b600080600080608085870312156108f0576108ef6105ac565b5b600085013567ffffffffffffffff81111561090e5761090d6105b1565b5b61091a8782880161087c565b945050602061092b878288016108c1565b935050604061093c878288016108c1565b925050606085013567ffffffffffffffff81111561095d5761095c6105b1565b5b6109698782880161087c565b91505092959194509250565b60008060006060848603121561098e5761098d6105ac565b5b600084013567ffffffffffffffff8111156109ac576109ab6105b1565b5b6109b88682870161087c565b93505060206109c9868287016108c1565b92505060406109da868287016108c1565b9150509250925092565b7f4e487b7100000000000000000000000000000000000000000000000000000000600052602260045260246000fd5b60006002820490506001821680610a2b57607f821691505b602082108103610a3e57610a3d6109e4565b5b50919050565b610a4d816105d6565b82525050565b600060c082019050610a686000830189610a44565b8181036020830152610a7a81886106a1565b90508181036040830152610a8e81876106a1565b9050610a9d60608301866106ea565b610aaa60808301856106ea565b610ab760a0830184610705565b979650505050505050565b50565b6000610ad260008361064c565b9150610add82610ac2565b600082019050919050565b600060c082019050610afd6000830188610a44565b8181036020830152610b0f81876106a1565b90508181036040830152610b2281610ac5565b9050610b3160608301866106ea565b610b3e60808301856106ea565b610b4b60a0830184610705565b969550505050505056fea264697066735822122027d6494ce6899e14ec92c5d3a989e90073322fe61eb63d40e9720b36d5e997a164736f6c634300080e0033",
  "immutableReferences": {},
  "source": "// SPDX-License-Identifier: MIT\r\npragma solidity >=0.4.22 <0.9.0;\r\n\r\ncontract UserRequestContract {\r\n    struct Req {\r\n        string userId; // user id\r\n        string pubKey; // user public key\r\n        uint32 config; // cpu num\r\n        uint32 duration; // duration for which the VM is requested\r\n        bool encryptRequired; //trueencryption required false: no encryption required\r\n    }\r\n\r\n    // \r\n    mapping(address => Req) public newestRequests;\r\n\r\n    event NewRequest(address user, string userId, string pubKey, uint32 config, uint32 duration, bool encryptRequired);\r\n\r\n    function requestVMWithoutEncryption(string memory userId, uint32 config, uint32 duration) public {\r\n        newestRequests[msg.sender] = Req({\r\n            userId: userId,\r\n            pubKey: \"\",\r\n            config: config,\r\n            duration: duration,\r\n            encryptRequired: false\r\n        });\r\n\r\n        emit NewRequest(msg.sender, userId, \"\", config, duration, false);\r\n    }\r\n\r\n    function requestVMWithEncryption(string memory userId, uint32 config, uint32 duration, string memory pubKey) public {\r\n        newestRequests[msg.sender] = Req({\r\n            userId: userId,\r\n            pubKey: pubKey,\r\n            config: config,\r\n            duration: duration,\r\n            encryptRequired: true\r\n        });\r\n\r\n        emit NewRequest(msg.sender, userId, pubKey, config, duration, true);\r\n    }\r\n}",
  "sourcePath": "d:\\onedrive\\workspace\\truffle-exper\\truffle\\contracts\\UserRequestContract.sol",
  "compiler": {
    "name": "solc",
    "version": "0.8.14+commit.80d49f37.Emscripten.clang"
  },
  "schemaVersion": "3.4.11",
  "updatedAt": "2022-12-11T03:01:46.296Z",
  "networkType": "ethereum",
  "devdoc": {
    "kind": "dev",
    "methods": {},
    "version": 1
  },
  "userdoc": {
    "kind": "user",
    "methods": {},
    "version": 1
  }
}