{
    "contractName": "UserRequestContract",
    "abi": [
        {
            "anonymous": false,
            "inputs": [
                {
                    "indexed": false,
                    "internalType": "address",
                    "name": "user",
                    "type": "address"
                },
                {
                    "indexed": false,
                    "internalType": "string",
                    "name": "userId",
                    "type": "string"
                },
                {
                    "indexed": false,
                    "internalType": "string",
                    "name": "pubKey",
                    "type": "string"
                },
                {
                    "indexed": false,
                    "internalType": "uint32",
                    "name": "config",
                    "type": "uint32"
                },
                {
                    "indexed": false,
                    "internalType": "uint32",
                    "name": "duration",
                    "type": "uint32"
                },
                {
                    "indexed": false,
                    "internalType": "bool",
                    "name": "encryptRequired",
                    "type": "bool"
                }
            ],
            "name": "NewRequest",
            "type": "event"
        },
        {
            "inputs": [
                {
                    "internalType": "address",
                    "name": "",
                    "type": "address"
                }
            ],
            "name": "newestRequests",
            "outputs": [
                {
                    "internalType": "string",
                    "name": "userId",
                    "type": "string"
                },
                {
                    "internalType": "string",
                    "name": "pubKey",
                    "type": "string"
                },
                {
                    "internalType": "uint32",
                    "name": "config",
                    "type": "uint32"
                },
                {
                    "internalType": "uint32",
                    "name": "duration",
                    "type": "uint32"
                },
                {
                    "internalType": "bool",
                    "name": "encryptRequired",
                    "type": "bool"
                }
            ],
            "stateMutability": "view",
            "type": "function"
        },
        {
            "inputs": [
                {
                    "internalType": "string",
                    "name": "userId",
                    "type": "string"
                },
                {
                    "internalType": "uint32",
                    "name": "config",
                    "type": "uint32"
                },
                {
                    "internalType": "uint32",
                    "name": "duration",
                    "type": "uint32"
                },
                {
                    "internalType": "string",
                    "name": "pubKey",
                    "type": "string"
                }
            ],
            "name": "requestVMWithEncryption",
            "outputs": [],
            "stateMutability": "nonpayable",
            "type": "function"
        },
        {
            "inputs": [
                {
                    "internalType": "string",
                    "name": "userId",
                    "type": "string"
                },
                {
                    "internalType": "uint32",
                    "name": "config",
                    "type": "uint32"
                },
                {
                    "internalType": "uint32",
                    "name": "duration",
                    "type": "uint32"
                }
            ],
            "name": "requestVMWithoutEncryption",
            "outputs": [],
            "stateMutability": "nonpayable",
            "type": "function"
        }
    ],
    "bytecode": "608060405234801561001057600080fd5b50610884806100206000396000f3fe608060405234801561001057600080fd5b50600436106100415760003560e01c80633dbc94c71461004657806365626f6d14610073578063b679d88314610088575b600080fd5b6100596100543660046103ed565b61009b565b60405161006a959493929190610463565b60405180910390f35b61008661008136600461056b565b6101ed565b005b6100866100963660046105f0565b6102ea565b6000602081905290815260409020805481906100b69061064e565b80601f01602080910402602001604051908101604052809291908181526020018280546100e29061064e565b801561012f5780601f106101045761010080835404028352916020019161012f565b820191906000526020600020905b81548152906001019060200180831161011257829003601f168201915b5050505050908060010180546101449061064e565b80601f01602080910402602001604051908101604052809291908181526020018280546101709061064e565b80156101bd5780601f10610192576101008083540402835291602001916101bd565b820191906000526020600020905b8154815290600101906020018083116101a057829003601f168201915b5050506002909301549192505063ffffffff8082169164010000000081049091169060ff600160401b9091041685565b6040805160a081018252858152602080820184905263ffffffff80871683850152851660608301526001608083015233600090815290819052919091208151819061023890826106d7565b506020820151600182019061024d90826106d7565b506040828101516002909201805460608501516080909501511515600160401b0260ff60401b1963ffffffff9687166401000000000267ffffffffffffffff1990931696909516959095171792909216929092179055517f535ea70a9b46705e4726ca22562803c32f169182640b3e63d91f413c46c772c9906102dc9033908790859088908890600190610797565b60405180910390a150505050565b6040805160a08101825284815281516020818101845260008083528184019290925263ffffffff808716848601528516606084015260808301829052338252819052919091208151819061033e90826106d7565b506020820151600182019061035390826106d7565b506040828101516002909201805460608501516080909501511515600160401b0260ff60401b1963ffffffff9687166401000000000267ffffffffffffffff1990931696909516959095171792909216929092179055517f535ea70a9b46705e4726ca22562803c32f169182640b3e63d91f413c46c772c9906103e09033908690869086906000906107f5565b60405180910390a1505050565b6000602082840312156103ff57600080fd5b81356001600160a01b038116811461041657600080fd5b9392505050565b6000815180845260005b8181101561044357602081850181015186830182015201610427565b506000602082860101526020601f19601f83011685010191505092915050565b60a08152600061047660a083018861041d565b8281036020840152610488818861041d565b63ffffffff9687166040850152949095166060830152509015156080909101529392505050565b634e487b7160e01b600052604160045260246000fd5b600082601f8301126104d657600080fd5b813567ffffffffffffffff808211156104f1576104f16104af565b604051601f8301601f19908116603f01168101908282118183101715610519576105196104af565b8160405283815286602085880101111561053257600080fd5b836020870160208301376000602085830101528094505050505092915050565b803563ffffffff8116811461056657600080fd5b919050565b6000806000806080858703121561058157600080fd5b843567ffffffffffffffff8082111561059957600080fd5b6105a5888389016104c5565b95506105b360208801610552565b94506105c160408801610552565b935060608701359150808211156105d757600080fd5b506105e4878288016104c5565b91505092959194509250565b60008060006060848603121561060557600080fd5b833567ffffffffffffffff81111561061c57600080fd5b610628868287016104c5565b93505061063760208501610552565b915061064560408501610552565b90509250925092565b600181811c9082168061066257607f821691505b60208210810361068257634e487b7160e01b600052602260045260246000fd5b50919050565b601f8211156106d257600081815260208120601f850160051c810160208610156106af5750805b601f850160051c820191505b818110156106ce578281556001016106bb565b5050505b505050565b815167ffffffffffffffff8111156106f1576106f16104af565b610705816106ff845461064e565b84610688565b602080601f83116001811461073a57600084156107225750858301515b600019600386901b1c1916600185901b1785556106ce565b600085815260208120601f198616915b828110156107695788860151825594840194600190910190840161074a565b50858210156107875787850151600019600388901b60f8161c191681555b5050505050600190811b01905550565b6001600160a01b038716815260c0602082018190526000906107bb9083018861041d565b82810360408401526107cd818861041d565b63ffffffff96871660608501529490951660808301525090151560a090910152949350505050565b6001600160a01b038616815260c0602082018190526000906108199083018761041d565b82810360408401526000815263ffffffff958616606084015293909416608082015290151560a090910152602001939250505056fea26469706673582212202aca4a6ef1730f31b6238b59e32031a500f5c28725ace6ecfde4408466e8c87b64736f6c63430008110033",
    "sourcePath": "d:/onedrive/workspace/truffle-exper/truffle/contracts/UserRequestContract.sol",
    "compiler": {
        "name": "solc",
        "version": "0.8.17+commit.8df45f5f"
    },
    "functionHashes": {
        "newestRequests(address)": "3dbc94c7",
        "requestVMWithEncryption(string,uint32,uint32,string)": "65626f6d",
        "requestVMWithoutEncryption(string,uint32,uint32)": "b679d883"
    },
    "gasEstimates": {
        "creation": {
            "codeDepositCost": "436000",
            "executionCost": "474",
            "totalCost": "436474"
        },
        "external": {
            "newestRequests(address)": "infinite",
            "requestVMWithEncryption(string,uint32,uint32,string)": "infinite",
            "requestVMWithoutEncryption(string,uint32,uint32)": "infinite"
        }
    }
}